:020000040800F2
:10000000C0FB012001040008DD050008EF14000812
:10001000DD050008DD050008DD0500080000000022
:10002000000000000000000000000000DD050008E6
:10003000DD05000800000000DD050008DD05000802
:10004000DD050008DD050008DD050008DD05000808
:10005000DD050008DD050008DD050008DD050008F8
:10006000DD050008DD050008DD050008DD050008E8
:10007000DD050008DD050008DD050008DD050008D8
:1004000000F0EFF80E480F490022814201D004C0ED
:10041000FBE70D480D490E4A814202D008CA08C0C8
:10042000FAE70C484FF47001026842EA01020260E8
:10043000BFF34F8FBFF36F8F00F0CCF800DE0000EA
:10044000F8FB012000FC0120C0FB0120F8FB01208B
:10045000FC17000888ED00E080B56F46C2B04EF68C
:100460006021062016914BF6A031C0F20D01002448
:1004700012910A210E914FF4FA710A91C82140900D
:1004800001204FF0080A06911A916421CDE91C441D
:100490008DF87C401E94CDE93C44CDE93844CDE94B
:1004A0003444CDE93044CDE92C44CDE92844CDE9AC
:1004B0002444CDE920448DF8FC403E948DF8EC4076
:1004C0003A948DF8DC4036948DF8CC4032948DF817
:1004D000BC402E948DF8AC402A948DF89C40269414
:1004E0008DF88C402294CDE91444CDE91044CDE937
:1004F0000C44CDE90844CDE90444CDE900448DF82D
:100500005C008DF84C008DF83C008DF82C008DF8C7
:100510001C008DF80C000290CDE918448DF86C0099
:100520001E918DF87C00CDE91C44CDF800A114B1DA
:1005300000F0BFF9FCE7684600F108084FF0000939
:10054000BAF1000F0CD104E000F0B3F9BAF1000FDA
:1005500006D14FF0000A00F0ACF9BAF1000FF8D064
:1005600000210846102998BF102008EB0112C0F1A5
:10057000000CCAF1000E013105E0013110320EEB22
:100580000103012BE0D00CEB0103012B1BD01379ED
:10059000002BF2D052E9023615685B4264EB060686
:1005A0005B1B76F10003E8D342E9024409F1010044
:1005B000DDF800A1632888BF0020032908BF814619
:1005C0005145CED3C0E741F2B8621021C0F6000217
:1005D00000F0A6FA80B56F46FFF73EFF80B56F4684
:1005E000FEE780B56F4680BD80B56F46FEE7F0B58B
:1005F00003AF2DE9000B42B3054614460069EA68D3
:10060000BFF35F8F904217D9D3431844E8B1A0429B
:1006100038BF0446A618B6F5806F1BD96868C2F5C6
:100620008069884610444A4600F05BFF686808EB22
:100630000901A4EB090210E0002812BFC2F5806096
:1006400040F2FF30801A0028E1D100242046BDE8A6
:10065000000BF0BD68681044224600F042FFBFF373
:100660005F8F6FF39F26EE602046BDE8000BF0BD64
:10067000F0B503AF2DE9000B1446C268B4F5806FE6
:1006800028BF4FF4806416190546B6F5806FBFF396
:100690005F8F0DD96868C2F58069884610444A4664
:1006A00000F01FFF686808EB0901A4EB090202E0F3
:1006B00068681044224600F014FFBFF35F8F6FF3A9
:1006C0009F26EE602046BDE8000BF0BDF0B503AFFD
:1006D0002DE9000782B04FF6F838C2F2010898F809
:1006E000000000286CD098F803004FF6C83640F29E
:1006F000EF5A40F27165C2F20106C0F6000AC0F678
:100700000005A0B307281BD24FF0FF3298F8041061
:1007100002FA00F0A7F11A0908432C4600F07F0006
:1007200007F81A0CF06A00F00300022808BF5446CC
:1007300006F1180049460122A0470028F8D014E02D
:100740007930A7F11B0940F0800007F81B0CF06A14
:100750002C4600F00300022808BF544606F118009A
:1007600049460122A0470028F8D0012820D10020C6
:10077000A7F1190407F8190CF06A00F00300022829
:1007800008BF554606F1180021460122A847002857
:10079000F8D001280CD198F801000021A8F8031026
:1007A00088F8001000F075F802B0BDE80007F0BD51
:1007B00041F224730121C0F60003012200F047FC3E
:1007C00041F2F86041F21472C0F60000C0F6000277
:1007D000392100F0B9F9F0B503AF4DF804BD82B08E
:1007E00000F04CF84FF6F831C2F201010A784ABB2A
:1007F00001220A708B78487003BB4FF6C835002081
:100800008A70C2F2010507F8110C40F27166E86ABD
:10081000A7F1110440F2EF51C0F6000600F003000A
:10082000C0F60001022808BF0E4605F11800214657
:100830000122B0470028F8D001280ED102B05DF89F
:1008400004BBF0BD41F2C86041F2E862C0F60000AE
:10085000C0F600023D2100F077F941F22473012136
:10086000C0F60003012200F0F2FB80B56F46BDE840
:100870008040FFF72BBF80B56F4680BDD0B502AF7B
:1008800000F014F8012121EA000400F00BF82046E2
:10089000D0BD80B56F46002808BF80BDBDE8804050
:1008A00000F002B872B6704762B67047EFF310807E
:1008B000704730BF7047D4D4F0B503AF2DE9000FB7
:1008C00087B08046D0F808B0B8681D460490164638
:1008D000FC681BF400104FF02B034FF0010208BF1F
:1008E0004FF48813002918BF420D02EB040908BF1A
:1008F0002D2306935FEA0B20059417D42C4600267F
:10090000B8F80CA0D145C0F080803346D8E9005635
:1009100000943146069A284600F0DEFB002840D0BD
:100920000124204607B0BDE8000FF0BD102D42D2D3
:10093000002D45D005F0030CA8084FF0000241D06F
:1009400000F0030006F1010EB2460395A2EB80030E
:100950006FF0030200200EEB0206043296F903400A
:1009600096F9061096F9055014F1410F96F90460B6
:10097000C8BF013016F1410FC8BF013015F1410F5A
:10098000C8BF013011F1410F03EB0201C8BF0130B4
:100990000431E0D1BCF1000F2ED0039D0432564645
:1009A00011E0F3682846DDE9041207B0BDE8000F46
:1009B000BDE8F04018473046294600F0D3F81DE066
:1009C00000201BE00020B15611F1410FC8BF0130DB
:1009D000BCF1010F12D0324492F9011011F1410F14
:1009E000C8BF0130BCF1020F08D092F9021011F11A
:1009F000410FC8BF013001E05646039D81442C469B
:100A0000B8F80CA0D145BFF480AF5FEACB100ED48C
:100A1000CBF34170AAEB09026FF35F5B4FF0000963
:100A2000B246DFE800F03F023C0291463AE0D8E9E6
:100A300002103346D8E900B502900020C9F6E070F4
:100A400003910840294640F0005040F03000C8F8BB
:100A5000080000945846069A00F03EFB002842D158
:100A6000AAEB0900002486B2A0B2B04207D22A69DC
:100A700058463021904701340028F5D033E0DDE9B5
:100A800004125846EB68984768BBDDE90210002461
:100A9000C8E90201204607B0BDE8000FF0BD90B2E2
:100AA0004FEA5009D8E90058002603921FFA89F04E
:100AB000B1B2814208D2D8F8102028465946904752
:100AC00001360028F2D00EE000942846069A4146EE
:100AD000534600F001FB30B9DDE904122846D8F88E
:100AE0000C30984728B10124204607B0BDE8000F1C
:100AF000F0BD03980026A0EB09001FFA80F900243E
:100B0000B0B2484538BF0124BFF40BAFD8F810206D
:100B100028465946904701360028F0D001E7D4D442
:100B2000FEB506AFCDE90001694605480590CDE95F
:100B3000030101A8029002A9024800F005F800BFD5
:100B40001F1100081016000880B56F4686B0CDE969
:100B500001010120ADF8140001A8039003A804923C
:100B6000FFF742FDF0B503AF2DE9000F82B08346D9
:100B7000033020F00300A0EB0B0A514533D20029CB
:100B800044D001F0030C88084FF0000100F03F82D0
:100B9000A1EB80060BF1010E6FF0030100200EEBBC
:100BA0000102043192F9033092F9064092F905509E
:100BB00013F1410F92F90420C8BF013012F1410F27
:100BC000C8BF013015F1410FC8BF013014F1410F0A
:100BD00006EB0102C8BF01300432E0D1BCF1000FC6
:100BE00015D0043114E2A1EB0A085FEA9809C6D0D7
:100BF00008F0030E584501D100204BE0ABEB00009C
:100C000010F1040F07D90026002029E0002002B0CF
:100C1000BDE8000FF0BD0BF1010C00206FF00301E7
:100C20000CEB010696F9035096F9062096F905405B
:100C300015F1410F96F90460C8BF013016F1410F5C
:100C4000C8BF013014F1410FC8BF013012F1410F8C
:100C500001F10402C8BF013011F108061146DFD1CD
:100C60001BF9061011F1410FC8BF0130BAF1010F95
:100C700010D00BEB060191F9012012F1410FC8BF12
:100C80000130BAF1020F05D091F9021011F1410FB4
:100C9000C8BF01304FF6FC710BEB0A02C1F6FF71C1
:100CA0000025BEF1000F1CD001F1C04101EA08018E
:100CB000114491F9004014F1410FC8BF0125BEF164
:100CC000010F0ED091F9014014F1410FC8BF013559
:100CD000BEF1020F05D091F9021011F1410FC8BF0A
:100CE000013528444FF0010A11E000253FFA85F351
:100CF0003FFA95F63344A9EB0B090EEB8B021BF080
:100D0000030103EB034300EB134040F04F81B9F1C3
:100D1000000F3FF47CAF9646B9F1C00FCB4628BF19
:100D20004FF0C00BB9F1040FDFD36FF00F0101EBEF
:100D30008B02302A0AEB121101F0030802D20025BF
:100D40007646BCE04FF6FC720025C1F6FF7201EA60
:100D5000020A7646CDF80080CDF804E096E80C5003
:100D6000BAF1040A71696FEA02084FEAD81444EA3A
:100D700092126FEA030422F0FE324FEAD41444EADE
:100D800093132A4423F0FE3313446FEA0C024FEA14
:100D9000D214356944EA9C14B26B24F0FE34D6F8C0
:100DA0003C8023446FEA0E044FEAD41444EA9E14B4
:100DB00024F0FE3404EB030C6FEA05044FEAD4146C
:100DC00044EA9515B3696FEA010425F0FE354FEA50
:100DD000D41444EA9111AC44F5696FEA030421F09C
:100DE000FE314FEAD41444EA93138C44316A6FEA1B
:100DF000050423F0FE334FEAD41444EA95159C44CD
:100E0000736A6FEA010425F0FE354FEAD41444EA10
:100E10009111AC44B56A6FEA030421F0FE314FEA48
:100E2000D41444EA93138C44F16A6FEA050423F066
:100E3000FE334FEAD4149C44336B44EA95156FEAB1
:100E4000010425F0FE354FEAD41444EA91116FEA0B
:100E50000304AC44756B21F0FE314FEAD41444EA2C
:100E60009313614423F0FE3306F1400619446FEA00
:100E700005034FEAD31343EA951323F0FE331944D5
:100E80006FEA02034FEAD31343EA921222F0FE32D2
:100E900011446FEA08024FEAD21242EA981222F095
:100EA000FE3202EB01057FF459AFDDF800804FF010
:100EB000010ADDF804E0B8F1000F3FF417AF96E83F
:100EC0000E10B8F1010F6FEA01044FEAD41444EA9E
:100ED000911121F0FE3129446FEA02054FEAD51540
:100EE00045EA921222F0FE3211446FEA03024FEA01
:100EF000D21242EA931222F0FE3211446FEA0C023F
:100F00004FEAD21242EA9C1222F0FE3202EB0105B5
:100F10003FF4ECAE06F1100CB8F1020F9CE80E1095
:100F20006FEA01044FEAD41444EA911121F0FE3132
:100F300029446FEA02054FEAD51545EA921222F0DC
:100F4000FE3211446FEA03024FEAD21242EA9312D0
:100F500022F0FE3211446FEA0C024FEAD21242EA4A
:100F60009C1222F0FE3202EB01053FF4BFAE2036A8
:100F70004ECECC43E40944EA911121F0FE312944DC
:100F8000D543ED0945EA921222F0FE321144DA43CC
:100F9000D20942EA931222F0FE321144F243D209FE
:100FA00042EA961222F0FE3255189FE60BF0FC033F
:100FB00001295EF823206FEA02064FEAD61646EAB8
:100FC000921222F0FE3215D00EEB830302295E68E6
:100FD0006FEA06054FEAD51545EA961626F0FE3665
:100FE000324407D09968CB43DB0943EA911121F0E1
:100FF000FE310A443FFA82F13FFA92F2114401EBCA
:10100000014100EB114002B0BDE8000FF0BD00202F
:101010001BF9012012F1410FC8BF0130BCF1010FD3
:101020003FF4F5AD594491F9012012F1410FC8BFC9
:101030000130BCF1020F3FF4EAAD91F9021011F159
:10104000410FC8BF013002B0BDE8000FF0BD80B550
:101050006F4686B0904213D9CDE9000241F21F10CD
:1010600001A9C0F600000590CDE903016846029091
:1010700041F27E60C0F6000002A91A46FFF764FD47
:10108000914215D8884213D9CDE9000141F21F10D1
:1010900001A9C0F600000590CDE903016846029061
:1010A00041F2D250C0F6000002A91A46FFF74CFDEB
:1010B00041F21F10CDE90012C0F6000001A9059011
:1010C00003906846029041F247600491C0F6000028
:1010D00002A91A46FFF738FDF0B503AF4DF8048DAD
:1010E000D7F808801C460E46B2F5881F0AD033692F
:1010F0001146054698470146284619B101205DF87A
:10110000048BF0BD3CB1F368214642465DF8048B88
:10111000BDE8F040184700205DF8048BF0BDF0B545
:1011200003AF2DE9000F87B0046841F234700D461B
:10113000C0F60000B4F57A7F38D349F27F68A7F192
:10114000260E002342F2107941F27B4A4FF0640BE5
:10115000C0F298082146039502940A4641F259715B
:10116000CDF2B7110EEB0304A2FB0116043B42457E
:101170004FEA563101FB19261FFA86FC4FEA9C05FF
:1011800005FB0AF54FEA554505FB1B6630F815507F
:10119000E580B6B230F816602681DED8DDE902457A
:1011A0000A33092906D80A46ACB915E00A232146B4
:1011B0000929F8D98AB241F27B469208023B724370
:1011C0006426520C02FB1611A7F1260689B230F8EC
:1011D0001110F15204B132B100EB4200013BA7F112
:1011E00026014078C854A7F12601C3F10A0019442A
:1011F0000122CDE90010284601210023FFF75CFB06
:1012000007B0BDE8000FF0BDF0B503AF2DE9000F4A
:101210008CB0102A1ED3434203F0030800EB0803EE
:10122000984233D2A8F1010C06460C46B8F1000FE3
:101230001AD00C46064614F801EBB8F1010F06F877
:1012400001EB11D04E78B8F1020F467008D18C1C1A
:10125000861C09E084460CEB02039C4540D36CE0FD
:101260008E78CC1C8670C61CBCF1030F0ED3043CD8
:10127000043E14F8045F06F8045F65787570A5787D
:10128000B570E578F570351D9D42F2D1A2EB080EE0
:1012900001EB08042EF0030214F0030603EB020C2A
:1012A00059D1634515D221460D6843F8045B634567
:1012B0000FD24D6843F8045B63453EBF8D6843F829
:1012C000045B634505D2CD68103143F8045B634588
:1012D000EAD3A1180EF003020CEB02039C452CD2BA
:1012E000A2F1010E12F0030413D00A46654612F86B
:1012F000016B012C05F8016B0DD04A78022C8CF89B
:1013000001201ED18A1C0CF10205BEF1030F05D28B
:1013100013E065460A46BEF1030F0ED3111F2A1FC4
:1013200011F8046F02F8046F4E7856708E7896703C
:10133000CE78D670161D9E42F2D10CB0BDE8000FDB
:10134000F0BD8A780CF103058CF80220CA1CBEF1AE
:10135000030FE3D2F1E74FF00009C6F1040A0BAD29
:10136000CDF82C9005EB060B5FEACA751EBF2578F9
:101370008BF800504FF00109A51B0795F50001956A
:101380005FEA8A7544BF34F809502BF80950DDF83C
:1013900004B01D1DDDF82CA06545CBF100050095BE
:1013A0006DD2734201EB030905F018010546079160
:1013B000CDF81090C144079B2AFA0BFAD9F8041013
:1013C000089101FA03F305EB080143EA0A038A4690
:1013D0004AF8083BE2453DD2089B0395CDF81890AA
:1013E00023FA0BF5D9F80890079B059109FA03F346
:1013F0002B434B6001F10C03634533D2069DED682E
:10140000089529FA0BF50295DDE9075101FA05F96E
:101410000599029D103145EA09056145CAF8005059
:1014200028D20699079DDDF81090D1F810A00899F0
:1014300009F110090AFA05F521FA0BF12943039D78
:101440001960103505EB0803191D6145B0D309EB90
:10145000080113E00B4609F1040107910433DDF89C
:1014600020A00CE00699CA4608310791059901F1C0
:10147000080304E00699DDF820A00C31079100254F
:10148000012E8DF8285007F8265C05D10DF12809AA
:101490004FF00008002609E00799A7F12609022667
:1014A0000D7949798DF828504FEA0128E10701D1DB
:1014B000002109E007990431895D89F8001017F8C7
:1014C000261C9DF82850090441EA0801019E294381
:1014D000009D05F018052AFA06F6A9403143196067
:1014E000F7E680B56F46BDE88040FFF78DBE80B55A
:0414F0006F46FEE75E
:1014F4002F55736572732F79696D696C6979612FE2
:101504002E636172676F2F72656769737472792FC6
:101514007372632F6D6972726F72732E74756E615C
:101524002E7473696E676875612E6564752E636EBB
:101534002D6537393161336639336632363835349F
:10154400662F6465666D742D7274742D302E342E7E
:10155400322F7372632F6C69622E7273002F55736E
:101564006572732F79696D696C6979612F2E636176
:1015740072676F2F72656769737472792F73726300
:101584002F6D6972726F72732E74756E612E74731F
:10159400696E676875612E6564752E636E2D653797
:1015A40039316133663933663236383534662F64FF
:1015B40065666D742D7274742D302E342E322F7333
:1015C40072632F6368616E6E656C2E72730016739E
:1015D4006C69636520696E646578207374617274E4
:1015E4007320617420C00D2062757420656E64736D
:1015F40020617420C0007372632F7461736B5F7316
:1016040063686564756C65722E72730020696E641C
:101614006578206F7574206F6620626F756E6473D1
:101624003A20746865206C656E20697320C01220AE
:101634006275742074686520696E646578206973C6
:1016440020C0001072616E676520656E6420696E4B
:1016540064657820C022206F7574206F66207261E3
:101664006E676520666F7220736C696365206F66B0
:10167400206C656E67746820C0001272616E6765C5
:1016840020737461727420696E64657820C02220AE
:101694006F7574206F662072616E676520666F7265
:1016A40020736C696365206F66206C656E6774686F
:1016B40020C00000FA1500081500000034000000E6
:1016C4001D0000006465666D74206C6F6767657249
:1016D4002074616B656E207265656E7472616E74E0
:1016E4006C790000F41400086C0000008B0000000A
:1016F4000D0000006465666D742072656C6561732D
:1017040065206F7574206F6620636F6E74657874DE
:10171400F41400086C000000C00000000D0000007C
:101724006115000870000000260000001F00000082
:101734003030303130323033303430353036303789
:10174400303830393130313131323133313431356F
:101754003136313731383139323032313232323355
:10176400323432353236323732383239333033313B
:101774003332333333343335333633373338333921
:101784003430343134323433343434353436343719
:1017940034383439353035313532353335343535FF
:1017A40035363537353835393630363136323633E5
:1017B40036343635363636373638363937303731CB
:1017C40037323733373437353736373737383739B1
:1017D40038303831383238333834383538363837A9
:1017E400383838393930393139323933393439358F
:0817F40039363937393839392B
:1017FC006465666D7400000053454747455220529E
:10180C005454000000000000010000000000000023
:10181C00C0FB012000FC01200004000000000000BF
:08182C000000000001000000B3
:0400000508000401EA
:00000001FF
